{
  "_format": "hh3-artifact-1",
  "contractName": "IntentWallet",
  "sourceName": "contracts/IntentWallet.sol",
  "abi": [
    {
      "inputs": [
        {
          "internalType": "address",
          "name": "initialOwner",
          "type": "address"
        }
      ],
      "stateMutability": "nonpayable",
      "type": "constructor"
    },
    {
      "inputs": [],
      "name": "ECDSAInvalidSignature",
      "type": "error"
    },
    {
      "inputs": [
        {
          "internalType": "uint256",
          "name": "length",
          "type": "uint256"
        }
      ],
      "name": "ECDSAInvalidSignatureLength",
      "type": "error"
    },
    {
      "inputs": [
        {
          "internalType": "bytes32",
          "name": "s",
          "type": "bytes32"
        }
      ],
      "name": "ECDSAInvalidSignatureS",
      "type": "error"
    },
    {
      "inputs": [],
      "name": "EnforcedPause",
      "type": "error"
    },
    {
      "inputs": [],
      "name": "ExpectedPause",
      "type": "error"
    },
    {
      "inputs": [],
      "name": "InvalidShortString",
      "type": "error"
    },
    {
      "inputs": [
        {
          "internalType": "address",
          "name": "owner",
          "type": "address"
        }
      ],
      "name": "OwnableInvalidOwner",
      "type": "error"
    },
    {
      "inputs": [
        {
          "internalType": "address",
          "name": "account",
          "type": "address"
        }
      ],
      "name": "OwnableUnauthorizedAccount",
      "type": "error"
    },
    {
      "inputs": [],
      "name": "ReentrancyGuardReentrantCall",
      "type": "error"
    },
    {
      "inputs": [
        {
          "internalType": "string",
          "name": "str",
          "type": "string"
        }
      ],
      "name": "StringTooLong",
      "type": "error"
    },
    {
      "anonymous": false,
      "inputs": [],
      "name": "EIP712DomainChanged",
      "type": "event"
    },
    {
      "anonymous": false,
      "inputs": [
        {
          "indexed": true,
          "internalType": "address",
          "name": "user",
          "type": "address"
        },
        {
          "indexed": true,
          "internalType": "bytes32",
          "name": "planId",
          "type": "bytes32"
        },
        {
          "indexed": false,
          "internalType": "bytes32",
          "name": "cidHash",
          "type": "bytes32"
        },
        {
          "indexed": true,
          "internalType": "address",
          "name": "relayer",
          "type": "address"
        },
        {
          "indexed": false,
          "internalType": "uint256",
          "name": "nonce",
          "type": "uint256"
        }
      ],
      "name": "IntentExecuted",
      "type": "event"
    },
    {
      "anonymous": false,
      "inputs": [
        {
          "indexed": true,
          "internalType": "address",
          "name": "previousOwner",
          "type": "address"
        },
        {
          "indexed": true,
          "internalType": "address",
          "name": "newOwner",
          "type": "address"
        }
      ],
      "name": "OwnershipTransferred",
      "type": "event"
    },
    {
      "anonymous": false,
      "inputs": [
        {
          "indexed": false,
          "internalType": "address",
          "name": "account",
          "type": "address"
        }
      ],
      "name": "Paused",
      "type": "event"
    },
    {
      "anonymous": false,
      "inputs": [
        {
          "indexed": true,
          "internalType": "address",
          "name": "relayer",
          "type": "address"
        },
        {
          "indexed": false,
          "internalType": "bool",
          "name": "isAllowed",
          "type": "bool"
        }
      ],
      "name": "RelayerAuthorizationUpdated",
      "type": "event"
    },
    {
      "anonymous": false,
      "inputs": [
        {
          "indexed": true,
          "internalType": "address",
          "name": "target",
          "type": "address"
        },
        {
          "indexed": false,
          "internalType": "bool",
          "name": "isAllowed",
          "type": "bool"
        }
      ],
      "name": "TargetWhitelistUpdated",
      "type": "event"
    },
    {
      "anonymous": false,
      "inputs": [
        {
          "indexed": false,
          "internalType": "address",
          "name": "account",
          "type": "address"
        }
      ],
      "name": "Unpaused",
      "type": "event"
    },
    {
      "inputs": [],
      "name": "eip712Domain",
      "outputs": [
        {
          "internalType": "bytes1",
          "name": "fields",
          "type": "bytes1"
        },
        {
          "internalType": "string",
          "name": "name",
          "type": "string"
        },
        {
          "internalType": "string",
          "name": "version",
          "type": "string"
        },
        {
          "internalType": "uint256",
          "name": "chainId",
          "type": "uint256"
        },
        {
          "internalType": "address",
          "name": "verifyingContract",
          "type": "address"
        },
        {
          "internalType": "bytes32",
          "name": "salt",
          "type": "bytes32"
        },
        {
          "internalType": "uint256[]",
          "name": "extensions",
          "type": "uint256[]"
        }
      ],
      "stateMutability": "view",
      "type": "function"
    },
    {
      "inputs": [
        {
          "internalType": "address",
          "name": "user",
          "type": "address"
        },
        {
          "components": [
            {
              "internalType": "bytes32",
              "name": "planId",
              "type": "bytes32"
            },
            {
              "internalType": "bytes32",
              "name": "planHash",
              "type": "bytes32"
            },
            {
              "internalType": "uint256",
              "name": "nonce",
              "type": "uint256"
            },
            {
              "internalType": "uint256",
              "name": "expiry",
              "type": "uint256"
            }
          ],
          "internalType": "struct IntentWallet.Plan",
          "name": "plan",
          "type": "tuple"
        },
        {
          "internalType": "address[]",
          "name": "targets",
          "type": "address[]"
        },
        {
          "internalType": "bytes[]",
          "name": "calldatas",
          "type": "bytes[]"
        },
        {
          "internalType": "bytes32",
          "name": "cidHash",
          "type": "bytes32"
        },
        {
          "internalType": "bytes",
          "name": "signature",
          "type": "bytes"
        }
      ],
      "name": "executeBatch",
      "outputs": [],
      "stateMutability": "nonpayable",
      "type": "function"
    },
    {
      "inputs": [
        {
          "internalType": "address",
          "name": "",
          "type": "address"
        }
      ],
      "name": "isRelayerAuthorized",
      "outputs": [
        {
          "internalType": "bool",
          "name": "",
          "type": "bool"
        }
      ],
      "stateMutability": "view",
      "type": "function"
    },
    {
      "inputs": [
        {
          "internalType": "address",
          "name": "",
          "type": "address"
        }
      ],
      "name": "isTargetWhitelisted",
      "outputs": [
        {
          "internalType": "bool",
          "name": "",
          "type": "bool"
        }
      ],
      "stateMutability": "view",
      "type": "function"
    },
    {
      "inputs": [
        {
          "internalType": "address",
          "name": "",
          "type": "address"
        }
      ],
      "name": "nonces",
      "outputs": [
        {
          "internalType": "uint256",
          "name": "",
          "type": "uint256"
        }
      ],
      "stateMutability": "view",
      "type": "function"
    },
    {
      "inputs": [],
      "name": "owner",
      "outputs": [
        {
          "internalType": "address",
          "name": "",
          "type": "address"
        }
      ],
      "stateMutability": "view",
      "type": "function"
    },
    {
      "inputs": [],
      "name": "pause",
      "outputs": [],
      "stateMutability": "nonpayable",
      "type": "function"
    },
    {
      "inputs": [],
      "name": "paused",
      "outputs": [
        {
          "internalType": "bool",
          "name": "",
          "type": "bool"
        }
      ],
      "stateMutability": "view",
      "type": "function"
    },
    {
      "inputs": [],
      "name": "renounceOwnership",
      "outputs": [],
      "stateMutability": "nonpayable",
      "type": "function"
    },
    {
      "inputs": [
        {
          "internalType": "address",
          "name": "relayer",
          "type": "address"
        },
        {
          "internalType": "bool",
          "name": "isAuthorized",
          "type": "bool"
        }
      ],
      "name": "setRelayerAuthorization",
      "outputs": [],
      "stateMutability": "nonpayable",
      "type": "function"
    },
    {
      "inputs": [
        {
          "internalType": "address",
          "name": "target",
          "type": "address"
        },
        {
          "internalType": "bool",
          "name": "isAllowed",
          "type": "bool"
        }
      ],
      "name": "setWhitelistStatus",
      "outputs": [],
      "stateMutability": "nonpayable",
      "type": "function"
    },
    {
      "inputs": [
        {
          "internalType": "address",
          "name": "newOwner",
          "type": "address"
        }
      ],
      "name": "transferOwnership",
      "outputs": [],
      "stateMutability": "nonpayable",
      "type": "function"
    },
    {
      "inputs": [],
      "name": "unpause",
      "outputs": [],
      "stateMutability": "nonpayable",
      "type": "function"
    }
  ],
  "bytecode": "0x610160604052348015610010575f5ffd5b5060405161189438038061189483398101604081905261002f91610380565b604080518082018252600a815269496e74656e744c696e6b60b01b602080830191909152825180840190935260018352603160f81b9083015290826001600160a01b03811661009857604051631e4fbdf760e01b81525f60048201526024015b60405180910390fd5b6100a1816101f9565b50600180556100b1826002610248565b610120526100c0816003610248565b61014052815160208084019190912060e052815190820120610100524660a05261014c60e05161010051604080517f8b73c3c69bb8fe3d512ecc4cf759cc79239f7b179b0ffacaa9a75d522b39400f60208201529081019290925260608201524660808201523060a08201525f9060c00160405160208183030381529060405280519060200120905090565b60805250503060c05260408051606081019091526029808252610177919061186b602083013961027a565b60408051808201909152601a81527f202020204465706c6f79657220286d73672e73656e646572293a00000000000060208201526101b590336102c4565b60408051808201909152601c81527f20202020496e697469616c204f776e657220706172616d657465723a0000000060208201526101f390826102c4565b5061058b565b5f80546001600160a01b038381166001600160a01b0319831681178455604051919092169283917f8be0079c531659141344cd1fd0a4f28419497f9722a3daafe3b4186f6b6457e09190a35050565b5f6020835110156102635761025c83610311565b9050610274565b8161026e8482610445565b5060ff90505b92915050565b6102c18160405160240161028e919061052d565b60408051601f198184030181529190526020810180516001600160e01b0390811663104c13eb60e21b1790915261034e16565b50565b61030d82826040516024016102da92919061053f565b60408051601f198184030181529190526020810180516001600160e01b0390811663319af33360e01b1790915261034e16565b5050565b5f5f829050601f8151111561033b578260405163305a27a960e01b815260040161008f919061052d565b805161034682610568565b179392505050565b6102c18161036160201b6106db1760201c565b5f6a636f6e736f6c652e6c6f6790505f5f835160208501845afa505050565b5f60208284031215610390575f5ffd5b81516001600160a01b03811681146103a6575f5ffd5b9392505050565b634e487b7160e01b5f52604160045260245ffd5b600181811c908216806103d557607f821691505b6020821081036103f357634e487b7160e01b5f52602260045260245ffd5b50919050565b601f82111561044057805f5260205f20601f840160051c8101602085101561041e5750805b601f840160051c820191505b8181101561043d575f815560010161042a565b50505b505050565b81516001600160401b0381111561045e5761045e6103ad565b6104728161046c84546103c1565b846103f9565b6020601f8211600181146104a4575f831561048d5750848201515b5f19600385901b1c1916600184901b17845561043d565b5f84815260208120601f198516915b828110156104d357878501518255602094850194600190920191016104b3565b50848210156104f057868401515f19600387901b60f8161c191681555b50505050600190811b01905550565b5f81518084528060208401602086015e5f602082860101526020601f19601f83011685010191505092915050565b602081525f6103a660208301846104ff565b604081525f61055160408301856104ff565b905060018060a01b03831660208301529392505050565b805160208083015191908110156103f3575f1960209190910360031b1b16919050565b60805160a05160c05160e05161010051610120516101405161128f6105dc5f395f61084401525f61081201525f610c8e01525f610c6601525f610bc101525f610beb01525f610c15015261128f5ff3fe608060405234801561000f575f5ffd5b50600436106100cb575f3560e01c80638456cb59116100885780638ff9e3f8116100635780638ff9e3f814610193578063f2fde38b146101b5578063f9f8febd146101c8578063fa12a725146101db575f5ffd5b80638456cb591461015657806384b0196e1461015e5780638da5cb5b14610179575f5ffd5b80630c424284146100cf5780633f4ba83a146100e457806346a9d08c146100ec5780635c975abb146100ff578063715018a6146101215780637ecebe0014610129575b5f5ffd5b6100e26100dd366004610ef5565b6101fd565b005b6100e2610264565b6100e26100fa366004610ef5565b610276565b5f54600160a01b900460ff165b60405190151581526020015b60405180910390f35b6100e26102d5565b610148610137366004610f2e565b60046020525f908152604090205481565b604051908152602001610118565b6100e26102e6565b6101666102f6565b6040516101189796959493929190610f7c565b5f546040516001600160a01b039091168152602001610118565b61010c6101a1366004610f2e565b60056020525f908152604090205460ff1681565b6100e26101c3366004610f2e565b610338565b6100e26101d6366004611098565b61037a565b61010c6101e9366004610f2e565b60066020525f908152604090205460ff1681565b6102056106fa565b6001600160a01b0382165f81815260056020908152604091829020805460ff191685151590811790915591519182527f52eec1a0372bcc0f149dd096fc04f013047c878bd949d11adecf9b39bc0c71dc91015b60405180910390a25050565b61026c6106fa565b610274610726565b565b61027e6106fa565b6001600160a01b0382165f81815260066020908152604091829020805460ff191685151590811790915591519182527f6821b86fc9804e997a2dd90c2ed1befccb9d9a2a243c1258e8316fddec237c119101610258565b6102dd6106fa565b6102745f61077a565b6102ee6106fa565b6102746107c9565b5f6060805f5f5f606061030761080b565b61030f61083d565b604080515f80825260208201909252600f60f81b9b939a50919850469750309650945092509050565b6103406106fa565b6001600160a01b03811661036e57604051631e4fbdf760e01b81525f60048201526024015b60405180910390fd5b6103778161077a565b50565b61038261086a565b61038a610894565b335f9081526006602052604090205460ff166103e85760405162461bcd60e51b815260206004820152601960248201527f4e6f7420616e20617574686f72697a65642072656c61796572000000000000006044820152606401610365565b876060013542111561042b5760405162461bcd60e51b815260206004820152600c60248201526b141b185b88195e1c1a5c995960a21b6044820152606401610365565b85841461046e5760405162461bcd60e51b81526020600482015260116024820152704d69736d6174636865642061727261797360781b6044820152606401610365565b851580159061047e5750600f8611155b6104bf5760405162461bcd60e51b8152602060048201526012602482015271496e76616c69642062617463682073697a6560701b6044820152606401610365565b6104ff898984848080601f0160208091040260200160405190810160405280939291908181526020018383808284375f920191909152506108be92505050565b6001600160a01b0389165f9081526004602052604081208054916105228361116f565b909155505f90505b8681101561067b5760055f89898481811061054757610547611193565b905060200201602081019061055c9190610f2e565b6001600160a01b0316815260208101919091526040015f205460ff166105bd5760405162461bcd60e51b815260206004820152601660248201527515185c99d95d081b9bdd081dda1a5d195b1a5cdd195960521b6044820152606401610365565b5f5f8989848181106105d1576105d1611193565b90506020020160208101906105e69190610f2e565b6001600160a01b031688888581811061060157610601611193565b905060200281019061061391906111a7565b6040516106219291906111ea565b5f604051808303815f865af19150503d805f811461065a576040519150601f19603f3d011682016040523d82523d5f602084013e61065f565b606091505b50915091508161067157805160208201fd5b505060010161052a565b5060408051848152818a0135602082015233918a35916001600160a01b038d16917ff1c2d923f17133f3e39c82ceb4dc191c6eefb1eee7104af073e984a5e57e2db8910160405180910390a46106d060018055565b505050505050505050565b5f6a636f6e736f6c652e6c6f6790505f5f835160208501845afa505050565b5f546001600160a01b031633146102745760405163118cdaa760e01b8152336004820152602401610365565b61072e610a50565b5f805460ff60a01b191690557f5db9ee0a495bf2e6ff9c91a7834c1ba4fdd244a5e8aa4e537bd38aeae4b073aa335b6040516001600160a01b03909116815260200160405180910390a1565b5f80546001600160a01b038381166001600160a01b0319831681178455604051919092169283917f8be0079c531659141344cd1fd0a4f28419497f9722a3daafe3b4186f6b6457e09190a35050565b6107d1610894565b5f805460ff60a01b1916600160a01b1790557f62e78cea01bee320cd4e420270b5ea74000d11b0c9f74754ebdbfc544b05a25861075d3390565b60606108387f00000000000000000000000000000000000000000000000000000000000000006002610a79565b905090565b60606108387f00000000000000000000000000000000000000000000000000000000000000006003610a79565b60026001540361088d57604051633ee5aeb560e01b815260040160405180910390fd5b6002600155565b5f54600160a01b900460ff16156102745760405163d93c066560e01b815260040160405180910390fd5b604080517ff52805ead28cc76d9cee42a80909542f109c432db4cd7d72297bbd86d0a884cb6020828101919091528435828401528401356060828101919091529184013560808201529083013560a08201525f906109349060c00160405160208183030381529060405280519060200120610b24565b90505f6109418284610b50565b90506001600160a01b03811661098d5760405162461bcd60e51b8152602060048201526011602482015270496e76616c6964207369676e617475726560781b6044820152606401610365565b846001600160a01b0316816001600160a01b0316146109ee5760405162461bcd60e51b815260206004820152601a60248201527f5369676e657220646f6573206e6f74206d6174636820757365720000000000006044820152606401610365565b6001600160a01b0381165f9081526004602052604090819020549085013514610a495760405162461bcd60e51b815260206004820152600d60248201526c496e76616c6964206e6f6e636560981b6044820152606401610365565b5050505050565b5f54600160a01b900460ff1661027457604051638dfc202b60e01b815260040160405180910390fd5b606060ff8314610a9357610a8c83610b78565b9050610b1e565b818054610a9f906111f9565b80601f0160208091040260200160405190810160405280929190818152602001828054610acb906111f9565b8015610b165780601f10610aed57610100808354040283529160200191610b16565b820191905f5260205f20905b815481529060010190602001808311610af957829003601f168201915b505050505090505b92915050565b5f610b1e610b30610bb5565b8360405161190160f01b8152600281019290925260228201526042902090565b5f5f5f5f610b5e8686610cde565b925092509250610b6e8282610d27565b5090949350505050565b60605f610b8483610de3565b6040805160208082528183019092529192505f91906020820181803683375050509182525060208101929092525090565b5f306001600160a01b037f000000000000000000000000000000000000000000000000000000000000000016148015610c0d57507f000000000000000000000000000000000000000000000000000000000000000046145b15610c3757507f000000000000000000000000000000000000000000000000000000000000000090565b610838604080517f8b73c3c69bb8fe3d512ecc4cf759cc79239f7b179b0ffacaa9a75d522b39400f60208201527f0000000000000000000000000000000000000000000000000000000000000000918101919091527f000000000000000000000000000000000000000000000000000000000000000060608201524660808201523060a08201525f9060c00160405160208183030381529060405280519060200120905090565b5f5f5f8351604103610d15576020840151604085015160608601515f1a610d0788828585610e0a565b955095509550505050610d20565b505081515f91506002905b9250925092565b5f826003811115610d3a57610d3a611231565b03610d43575050565b6001826003811115610d5757610d57611231565b03610d755760405163f645eedf60e01b815260040160405180910390fd5b6002826003811115610d8957610d89611231565b03610daa5760405163fce698f760e01b815260048101829052602401610365565b6003826003811115610dbe57610dbe611231565b03610ddf576040516335e2f38360e21b815260048101829052602401610365565b5050565b5f60ff8216601f811115610b1e57604051632cd44ac360e21b815260040160405180910390fd5b5f80807f7fffffffffffffffffffffffffffffff5d576e7357a4501ddfe92f46681b20a0841115610e4357505f91506003905082610ec8565b604080515f808252602082018084528a905260ff891692820192909252606081018790526080810186905260019060a0016020604051602081039080840390855afa158015610e94573d5f5f3e3d5ffd5b5050604051601f1901519150506001600160a01b038116610ebf57505f925060019150829050610ec8565b92505f91508190505b9450945094915050565b610274611245565b80356001600160a01b0381168114610ef0575f5ffd5b919050565b5f5f60408385031215610f06575f5ffd5b610f0f83610eda565b915060208301358015158114610f23575f5ffd5b809150509250929050565b5f60208284031215610f3e575f5ffd5b610f4782610eda565b9392505050565b5f81518084528060208401602086015e5f602082860101526020601f19601f83011685010191505092915050565b60ff60f81b8816815260e060208201525f610f9a60e0830189610f4e565b8281036040840152610fac8189610f4e565b606084018890526001600160a01b038716608085015260a0840186905283810360c0850152845180825260208087019350909101905f5b81811015611001578351835260209384019390920191600101610fe3565b50909b9a5050505050505050505050565b5f5f83601f840112611022575f5ffd5b50813567ffffffffffffffff811115611039575f5ffd5b6020830191508360208260051b8501011115611053575f5ffd5b9250929050565b5f5f83601f84011261106a575f5ffd5b50813567ffffffffffffffff811115611081575f5ffd5b602083019150836020828501011115611053575f5ffd5b5f5f5f5f5f5f5f5f5f898b036101208112156110b2575f5ffd5b6110bb8b610eda565b99506080601f19820112156110ce575f5ffd5b5060208a01975060a08a013567ffffffffffffffff8111156110ee575f5ffd5b6110fa8c828d01611012565b90985096505060c08a013567ffffffffffffffff811115611119575f5ffd5b6111258c828d01611012565b90965094505060e08a013592506101008a013567ffffffffffffffff81111561114c575f5ffd5b6111588c828d0161105a565b915080935050809150509295985092959850929598565b5f6001820161118c57634e487b7160e01b5f52601160045260245ffd5b5060010190565b634e487b7160e01b5f52603260045260245ffd5b5f5f8335601e198436030181126111bc575f5ffd5b83018035915067ffffffffffffffff8211156111d6575f5ffd5b602001915036819003821315611053575f5ffd5b818382375f9101908152919050565b600181811c9082168061120d57607f821691505b60208210810361122b57634e487b7160e01b5f52602260045260245ffd5b50919050565b634e487b7160e01b5f52602160045260245ffd5b634e487b7160e01b5f52605160045260245ffdfea2646970667358221220d1dc7d01cdfc4c4f852b7924e7b9da2cd9d7844ab91c72c4f564116e26f9128e64736f6c634300081c00332d2d3e20496e74656e7457616c6c657420636f6e7374727563746f7220657865637574696e672e2e2e",
  "linkReferences": {},
  "deployedLinkReferences": {},
  "immutableReferences": {
    "2543": [
      {
        "length": 32,
        "start": 3093
      }
    ],
    "2545": [
      {
        "length": 32,
        "start": 3051
      }
    ],
    "2547": [
      {
        "length": 32,
        "start": 3009
      }
    ],
    "2549": [
      {
        "length": 32,
        "start": 3174
      }
    ],
    "2551": [
      {
        "length": 32,
        "start": 3214
      }
    ],
    "2554": [
      {
        "length": 32,
        "start": 2066
      }
    ],
    "2557": [
      {
        "length": 32,
        "start": 2116
      }
    ]
  },
  "inputSourceName": "project/contracts/IntentWallet.sol",
  "buildInfoId": "solc-0_8_28-6537286cf1b499e631b31705a58ef0ab73c5f4a6"
}